{
  "contractName": "Game",
  "abi": [
    {
      "constant": false,
      "inputs": [
        {
          "name": "_id",
          "type": "uint256"
        },
        {
          "name": "_out",
          "type": "uint8"
        }
      ],
      "name": "placeBet",
      "outputs": [],
      "payable": true,
      "stateMutability": "payable",
      "type": "function"
    },
    {
      "constant": true,
      "inputs": [],
      "name": "getPlayable",
      "outputs": [
        {
          "name": "",
          "type": "uint256[]"
        }
      ],
      "payable": false,
      "stateMutability": "view",
      "type": "function"
    },
    {
      "constant": false,
      "inputs": [
        {
          "name": "_name",
          "type": "string"
        },
        {
          "name": "_date",
          "type": "string"
        },
        {
          "name": "_stadium",
          "type": "string"
        }
      ],
      "name": "addMatch",
      "outputs": [],
      "payable": false,
      "stateMutability": "nonpayable",
      "type": "function"
    },
    {
      "constant": true,
      "inputs": [
        {
          "name": "",
          "type": "uint256"
        }
      ],
      "name": "matches",
      "outputs": [
        {
          "name": "id",
          "type": "uint256"
        },
        {
          "name": "name",
          "type": "string"
        },
        {
          "name": "stadium",
          "type": "string"
        },
        {
          "name": "date",
          "type": "string"
        },
        {
          "name": "result",
          "type": "uint8"
        },
        {
          "name": "duelCounter",
          "type": "uint256"
        }
      ],
      "payable": false,
      "stateMutability": "view",
      "type": "function"
    },
    {
      "constant": true,
      "inputs": [],
      "name": "getMatchCount",
      "outputs": [
        {
          "name": "",
          "type": "uint256"
        }
      ],
      "payable": false,
      "stateMutability": "view",
      "type": "function"
    },
    {
      "constant": false,
      "inputs": [
        {
          "name": "_id",
          "type": "uint256"
        },
        {
          "name": "_result",
          "type": "uint8"
        }
      ],
      "name": "setMatchResult",
      "outputs": [],
      "payable": true,
      "stateMutability": "payable",
      "type": "function"
    },
    {
      "inputs": [],
      "payable": false,
      "stateMutability": "nonpayable",
      "type": "constructor"
    },
    {
      "anonymous": false,
      "inputs": [
        {
          "indexed": false,
          "name": "_matchName",
          "type": "string"
        }
      ],
      "name": "GameFinished",
      "type": "event"
    },
    {
      "anonymous": false,
      "inputs": [
        {
          "indexed": false,
          "name": "_player",
          "type": "address"
        },
        {
          "indexed": false,
          "name": "_matchName",
          "type": "string"
        }
      ],
      "name": "BetPlaced",
      "type": "event"
    }
  ],
  "bytecode": "0x606060405234156200001057600080fd5b336000806101000a81548173ffffffffffffffffffffffffffffffffffffffff021916908373ffffffffffffffffffffffffffffffffffffffff160217905550620001106040805190810160405280601381526020017f417267656e74696e65202d2043726f61746961000000000000000000000000008152506040805190810160405280601281526020017f4c757a73686e79696b69205374616469756d00000000000000000000000000008152506040805190810160405280600a81526020017f323031382e30362e323500000000000000000000000000000000000000000000815250620002966401000000000262000dc8176401000000009004565b620001d06040805190810160405280601081526020017f4272617a696c202d204765726d616e79000000000000000000000000000000008152506040805190810160405280600b81526020017f4b617a616e204172656e610000000000000000000000000000000000000000008152506040805190810160405280600a81526020017f323031382e30362e323600000000000000000000000000000000000000000000815250620002966401000000000262000dc8176401000000009004565b620002906040805190810160405280600c81526020017f537061696e202d204972616e00000000000000000000000000000000000000008152506040805190810160405280601281526020017f4c757a73686e79696b69205374616469756d00000000000000000000000000008152506040805190810160405280600a81526020017f323031382e30362e323700000000000000000000000000000000000000000000815250620002966401000000000262000dc8176401000000009004565b620007c3565b6000809054906101000a900473ffffffffffffffffffffffffffffffffffffffff1673ffffffffffffffffffffffffffffffffffffffff163373ffffffffffffffffffffffffffffffffffffffff16141515620002f257600080fd5b600b6000815480929190600101919050555060c060405190810160405280600b5481526020018481526020018281526020018381526020016003808111156200033757fe5b81526020016000815250600c6000600b5481526020019081526020016000206000820151816000015560208201518160010190805190602001906200037e92919062000686565b5060408201518160020190805190602001906200039d92919062000686565b506060820151816003019080519060200190620003bc92919062000686565b5060808201518160040160006101000a81548160ff02191690836003811115620003e257fe5b021790555060a08201518160050155905050600c6000600b548152602001908152602001600020600160008201548160000155600182018160010190805460018160011615610100020316600290046200043e9291906200070d565b5060028201816002019080546001816001161561010002031660029004620004689291906200070d565b5060038201816003019080546001816001161561010002031660029004620004929291906200070d565b506004820160009054906101000a900460ff168160040160006101000a81548160ff02191690836003811115620004c557fe5b02179055506005820154816005015590505060606040519081016040528060016005015481526020016040805190810160405280600073ffffffffffffffffffffffffffffffffffffffff1681526020016003808111156200052357fe5b81525081526020016040805190810160405280600073ffffffffffffffffffffffffffffffffffffffff1681526020016003808111156200056057fe5b815250815250600160060160008081526020019081526020016000206000820151816000015560208201518160010160008201518160000160006101000a81548173ffffffffffffffffffffffffffffffffffffffff021916908373ffffffffffffffffffffffffffffffffffffffff16021790555060208201518160000160146101000a81548160ff02191690836003811115620005fb57fe5b0217905550505060408201518160020160008201518160000160006101000a81548173ffffffffffffffffffffffffffffffffffffffff021916908373ffffffffffffffffffffffffffffffffffffffff16021790555060208201518160000160146101000a81548160ff021916908360038111156200067757fe5b02179055505050905050505050565b828054600181600116156101000203166002900490600052602060002090601f016020900481019282601f10620006c957805160ff1916838001178555620006fa565b82800160010185558215620006fa579182015b82811115620006f9578251825591602001919060010190620006dc565b5b5090506200070991906200079b565b5090565b828054600181600116156101000203166002900490600052602060002090601f016020900481019282601f1062000748578054855562000788565b828001600101855582156200078857600052602060002091601f016020900482015b82811115620007875782548255916001019190600101906200076a565b5b5090506200079791906200079b565b5090565b620007c091905b80821115620007bc576000816000905550600101620007a2565b5090565b90565b611bc980620007d36000396000f300606060405260043610610078576000357c0100000000000000000000000000000000000000000000000000000000900463ffffffff16806303edf9141461007d578063089a9f03146100a157806321bfefce1461010b5780634768d4ef146101ee5780638c4f7dae146103dc578063b0a3278d14610405575b600080fd5b61009f600480803590602001909190803560ff16906020019091905050610429565b005b34156100ac57600080fd5b6100b4610c70565b6040518080602001828103825283818151815260200191508051906020019060200280838360005b838110156100f75780820151818401526020810190506100dc565b505050509050019250505060405180910390f35b341561011657600080fd5b6101ec600480803590602001908201803590602001908080601f0160208091040260200160405190810160405280939291908181526020018383808284378201915050505050509190803590602001908201803590602001908080601f0160208091040260200160405190810160405280939291908181526020018383808284378201915050505050509190803590602001908201803590602001908080601f01602080910402602001604051908101604052809392919081815260200183838082843782019150505050505091905050610dc8565b005b34156101f957600080fd5b61020f60048080359060200190919050506111a4565b6040518087815260200180602001806020018060200186600381111561023157fe5b60ff1681526020018581526020018481038452898181546001816001161561010002031660029004815260200191508054600181600116156101000203166002900480156102c05780601f10610295576101008083540402835291602001916102c0565b820191906000526020600020905b8154815290600101906020018083116102a357829003601f168201915b50508481038352888181546001816001161561010002031660029004815260200191508054600181600116156101000203166002900480156103435780601f1061031857610100808354040283529160200191610343565b820191906000526020600020905b81548152906001019060200180831161032657829003601f168201915b50508481038252878181546001816001161561010002031660029004815260200191508054600181600116156101000203166002900480156103c65780601f1061039b576101008083540402835291602001916103c6565b820191906000526020600020905b8154815290600101906020018083116103a957829003601f168201915b5050995050505050505050505060405180910390f35b34156103e757600080fd5b6103ef6111ea565b6040518082815260200191505060405180910390f35b610427600480803590602001909190803560ff169060200190919050506111f4565b005b600c60008381526020019081526020016000206001600082015481600001556001820181600101908054600181600116156101000203166002900461046f929190611a5d565b5060028201816002019080546001816001161561010002031660029004610497929190611a5d565b50600382018160030190805460018160011615610100020316600290046104bf929190611a5d565b506004820160009054906101000a900460ff168160040160006101000a81548160ff021916908360038111156104f157fe5b02179055506005820154816005015590505060016006016000600160050154815260200190815260200160002060086000820154816000015560018201816001016000820160009054906101000a900473ffffffffffffffffffffffffffffffffffffffff168160000160006101000a81548173ffffffffffffffffffffffffffffffffffffffff021916908373ffffffffffffffffffffffffffffffffffffffff1602179055506000820160149054906101000a900460ff168160000160146101000a81548160ff021916908360038111156105ca57fe5b0217905550505060028201816002016000820160009054906101000a900473ffffffffffffffffffffffffffffffffffffffff168160000160006101000a81548173ffffffffffffffffffffffffffffffffffffffff021916908373ffffffffffffffffffffffffffffffffffffffff1602179055506000820160149054906101000a900460ff168160000160146101000a81548160ff0219169083600381111561067157fe5b021790555050509050506000600860010160000160009054906101000a900473ffffffffffffffffffffffffffffffffffffffff1673ffffffffffffffffffffffffffffffffffffffff161415610769573360016006016000600160050154815260200190815260200160002060010160000160006101000a81548173ffffffffffffffffffffffffffffffffffffffff021916908373ffffffffffffffffffffffffffffffffffffffff1602179055508060016006016000600160050154815260200190815260200160002060010160000160146101000a81548160ff0219169083600381111561075f57fe5b0217905550610b1b565b6000600860020160000160009054906101000a900473ffffffffffffffffffffffffffffffffffffffff1673ffffffffffffffffffffffffffffffffffffffff1614801561080b57503373ffffffffffffffffffffffffffffffffffffffff16600860010160000160009054906101000a900473ffffffffffffffffffffffffffffffffffffffff1673ffffffffffffffffffffffffffffffffffffffff1614155b156108b7573360016006016000600160050154815260200190815260200160002060020160000160006101000a81548173ffffffffffffffffffffffffffffffffffffffff021916908373ffffffffffffffffffffffffffffffffffffffff1602179055508060016006016000600160050154815260200190815260200160002060020160000160146101000a81548160ff021916908360038111156108ad57fe5b0217905550610b1a565b60016005016000815480929190600101919050555060606040519081016040528060016005015481526020016040805190810160405280600073ffffffffffffffffffffffffffffffffffffffff16815260200160038081111561091757fe5b81525081526020016040805190810160405280600073ffffffffffffffffffffffffffffffffffffffff16815260200160038081111561095357fe5b8152508152506001600601600060016005015481526020019081526020016000206000820151816000015560208201518160010160008201518160000160006101000a81548173ffffffffffffffffffffffffffffffffffffffff021916908373ffffffffffffffffffffffffffffffffffffffff16021790555060208201518160000160146101000a81548160ff021916908360038111156109f257fe5b0217905550505060408201518160020160008201518160000160006101000a81548173ffffffffffffffffffffffffffffffffffffffff021916908373ffffffffffffffffffffffffffffffffffffffff16021790555060208201518160000160146101000a81548160ff02191690836003811115610a6d57fe5b021790555050509050503360016006016000600160050154815260200190815260200160002060010160000160006101000a81548173ffffffffffffffffffffffffffffffffffffffff021916908373ffffffffffffffffffffffffffffffffffffffff1602179055508060016006016000600160050154815260200190815260200160002060010160000160146101000a81548160ff02191690836003811115610b1457fe5b02179055505b5b6000809054906101000a900473ffffffffffffffffffffffffffffffffffffffff1673ffffffffffffffffffffffffffffffffffffffff166108fc349081150290604051600060405180830381858888f193505050501515610b7c57600080fd5b7f1ef9791ee3cf2390416cdba3d9e7e1375295e09bf0ab23ad3425ed5b549766fb3360018001604051808373ffffffffffffffffffffffffffffffffffffffff1673ffffffffffffffffffffffffffffffffffffffff16815260200180602001828103825283818154600181600116156101000203166002900481526020019150805460018160011615610100020316600290048015610c5d5780601f10610c3257610100808354040283529160200191610c5d565b820191906000526020600020905b815481529060010190602001808311610c4057829003601f168201915b5050935050505060405180910390a15050565b610c78611ae4565b610c80611ae4565b600080610c8b611ae4565b6000600b54604051805910610c9d5750595b9080825280602002602001820160405250945060009350600192505b600b5483111515610d4e57600380811115610cd057fe5b600c600085815260200190815260200160002060040160009054906101000a900460ff166003811115610cff57fe5b1415610d4157600c6000848152602001908152602001600020600001548585815181101515610d2a57fe5b906020019060200201818152505083806001019450505b8280600101935050610cb9565b83604051805910610d5c5750595b90808252806020026020018201604052509150600090505b83811015610dbd578481815181101515610d8a57fe5b906020019060200201518282815181101515610da257fe5b90602001906020020181815250508080600101915050610d74565b819550505050505090565b6000809054906101000a900473ffffffffffffffffffffffffffffffffffffffff1673ffffffffffffffffffffffffffffffffffffffff163373ffffffffffffffffffffffffffffffffffffffff16141515610e2357600080fd5b600b6000815480929190600101919050555060c060405190810160405280600b548152602001848152602001828152602001838152602001600380811115610e6757fe5b81526020016000815250600c6000600b548152602001908152602001600020600082015181600001556020820151816001019080519060200190610eac929190611af8565b506040820151816002019080519060200190610ec9929190611af8565b506060820151816003019080519060200190610ee6929190611af8565b5060808201518160040160006101000a81548160ff02191690836003811115610f0b57fe5b021790555060a08201518160050155905050600c6000600b54815260200190815260200160002060016000820154816000015560018201816001019080546001816001161561010002031660029004610f65929190611a5d565b5060028201816002019080546001816001161561010002031660029004610f8d929190611a5d565b5060038201816003019080546001816001161561010002031660029004610fb5929190611a5d565b506004820160009054906101000a900460ff168160040160006101000a81548160ff02191690836003811115610fe757fe5b02179055506005820154816005015590505060606040519081016040528060016005015481526020016040805190810160405280600073ffffffffffffffffffffffffffffffffffffffff16815260200160038081111561104457fe5b81525081526020016040805190810160405280600073ffffffffffffffffffffffffffffffffffffffff16815260200160038081111561108057fe5b815250815250600160060160008081526020019081526020016000206000820151816000015560208201518160010160008201518160000160006101000a81548173ffffffffffffffffffffffffffffffffffffffff021916908373ffffffffffffffffffffffffffffffffffffffff16021790555060208201518160000160146101000a81548160ff0219169083600381111561111a57fe5b0217905550505060408201518160020160008201518160000160006101000a81548173ffffffffffffffffffffffffffffffffffffffff021916908373ffffffffffffffffffffffffffffffffffffffff16021790555060208201518160000160146101000a81548160ff0219169083600381111561119557fe5b02179055505050905050505050565b600c6020528060005260406000206000915090508060000154908060010190806002019080600301908060040160009054906101000a900460ff16908060050154905086565b6000600b54905090565b60008060009054906101000a900473ffffffffffffffffffffffffffffffffffffffff1673ffffffffffffffffffffffffffffffffffffffff163373ffffffffffffffffffffffffffffffffffffffff1614151561125157600080fd5b600c600084815260200190815260200160002060016000820154816000015560018201816001019080546001816001161561010002031660029004611297929190611a5d565b50600282018160020190805460018160011615610100020316600290046112bf929190611a5d565b50600382018160030190805460018160011615610100020316600290046112e7929190611a5d565b506004820160009054906101000a900460ff168160040160006101000a81548160ff0219169083600381111561131957fe5b02179055506005820154816005015590505081600160040160006101000a81548160ff0219169083600381111561134c57fe5b021790555081600c600085815260200190815260200160002060040160006101000a81548160ff0219169083600381111561138357fe5b0217905550600090505b6001600501548111151561199c57600160040160009054906101000a900460ff1660038111156113b957fe5b6001600601600083815260200190815260200160002060010160000160149054906101000a900460ff1660038111156113ee57fe5b14801561144b5750600160040160009054906101000a900460ff16600381111561141457fe5b6001600601600083815260200190815260200160002060020160000160149054906101000a900460ff16600381111561144957fe5b145b15611561576001600601600082815260200190815260200160002060010160000160009054906101000a900473ffffffffffffffffffffffffffffffffffffffff1673ffffffffffffffffffffffffffffffffffffffff166108fc6002348115156114b257fe5b049081150290604051600060405180830381858888f1935050505015156114d857600080fd5b6001600601600082815260200190815260200160002060020160000160009054906101000a900473ffffffffffffffffffffffffffffffffffffffff1673ffffffffffffffffffffffffffffffffffffffff166108fc60023481151561153a57fe5b049081150290604051600060405180830381858888f19350505050151561156057600080fd5b5b600160040160009054906101000a900460ff16600381111561157f57fe5b6001600601600083815260200190815260200160002060010160000160149054906101000a900460ff1660038111156115b457fe5b141580156116135750600160040160009054906101000a900460ff1660038111156115db57fe5b6001600601600083815260200190815260200160002060020160000160149054906101000a900460ff16600381111561161057fe5b14155b15611729576001600601600082815260200190815260200160002060010160000160009054906101000a900473ffffffffffffffffffffffffffffffffffffffff1673ffffffffffffffffffffffffffffffffffffffff166108fc60023481151561167a57fe5b049081150290604051600060405180830381858888f1935050505015156116a057600080fd5b6001600601600082815260200190815260200160002060020160000160009054906101000a900473ffffffffffffffffffffffffffffffffffffffff1673ffffffffffffffffffffffffffffffffffffffff166108fc60023481151561170257fe5b049081150290604051600060405180830381858888f19350505050151561172857600080fd5b5b600160040160009054906101000a900460ff16600381111561174757fe5b6001600601600083815260200190815260200160002060010160000160149054906101000a900460ff16600381111561177c57fe5b1480156117da5750600160040160009054906101000a900460ff1660038111156117a257fe5b6001600601600083815260200190815260200160002060020160000160149054906101000a900460ff1660038111156117d757fe5b14155b1561185c576001600601600082815260200190815260200160002060010160000160009054906101000a900473ffffffffffffffffffffffffffffffffffffffff1673ffffffffffffffffffffffffffffffffffffffff166108fc349081150290604051600060405180830381858888f19350505050151561185b57600080fd5b5b600160040160009054906101000a900460ff16600381111561187a57fe5b6001600601600083815260200190815260200160002060010160000160149054906101000a900460ff1660038111156118af57fe5b1415801561190d5750600160040160009054906101000a900460ff1660038111156118d657fe5b6001600601600083815260200190815260200160002060020160000160149054906101000a900460ff16600381111561190b57fe5b145b1561198f576001600601600082815260200190815260200160002060020160000160009054906101000a900473ffffffffffffffffffffffffffffffffffffffff1673ffffffffffffffffffffffffffffffffffffffff166108fc349081150290604051600060405180830381858888f19350505050151561198e57600080fd5b5b808060010191505061138d565b7fc11ea087dadfdbf4e99ab4c62c33cfc957f8c968ba60bd048208022942fa6aa3600180016040518080602001828103825283818154600181600116156101000203166002900481526020019150805460018160011615610100020316600290048015611a4a5780601f10611a1f57610100808354040283529160200191611a4a565b820191906000526020600020905b815481529060010190602001808311611a2d57829003601f168201915b50509250505060405180910390a1505050565b828054600181600116156101000203166002900490600052602060002090601f016020900481019282601f10611a965780548555611ad3565b82800160010185558215611ad357600052602060002091601f016020900482015b82811115611ad2578254825591600101919060010190611ab7565b5b509050611ae09190611b78565b5090565b602060405190810160405280600081525090565b828054600181600116156101000203166002900490600052602060002090601f016020900481019282601f10611b3957805160ff1916838001178555611b67565b82800160010185558215611b67579182015b82811115611b66578251825591602001919060010190611b4b565b5b509050611b749190611b78565b5090565b611b9a91905b80821115611b96576000816000905550600101611b7e565b5090565b905600a165627a7a72305820f02e0a4749983fbe46510c168eda4fdb7d6a83f66f0a44ff744e62ec5a291ecd0029",
  "source": "pragma solidity ^0.4.18;\n\ncontract Game {\n\n  event GameFinished(\n    string _matchName\n  );\n\n  event BetPlaced(\n    address _player,\n    string _matchName\n  );\n\n  enum MatchEnd {HOME,DRAW,AWAY,NON}\n\n  struct Bet {\n    address player;\n    MatchEnd out;\n  }\n\n  struct Duel {\n    uint id;\n    Bet first;\n    Bet second;\n  }\n\n  struct Match {\n    uint id;\n    string name;\n    string stadium;\n    string date;\n    MatchEnd result;\n    uint duelCounter;\n\n    mapping (uint => Duel) duels;\n  }\n\n  address owner;\n  Match usedMatch;\n  Duel usedDuel;\n  uint matchCounter;\n\n  mapping (uint => Match) public matches;\n\n  function Game() public {\n    owner = msg.sender;\n    addMatch(\"Argentine - Croatia\", \"Luzshnyiki Stadium\", \"2018.06.25\");\n    addMatch(\"Brazil - Germany\", \"Kazan Arena\", \"2018.06.26\");\n    addMatch(\"Spain - Iran\", \"Luzshnyiki Stadium\", \"2018.06.27\");\n  }\n\n  function addMatch(string _name, string _date, string _stadium) public {\n    require(msg.sender == owner);\n    matchCounter++;\n    matches[matchCounter] = Match(matchCounter, _name, _stadium, _date, MatchEnd.NON, 0);\n    usedMatch = matches[matchCounter];\n    usedMatch.duels[0] = Duel(usedMatch.duelCounter, Bet(0x0, MatchEnd.NON), Bet(0x0, MatchEnd.NON));\n  }\n\n  function setMatchResult(uint _id, MatchEnd _result) payable public {\n    require(msg.sender == owner);\n\n    usedMatch = matches[_id];\n\n    usedMatch.result = _result;\n    matches[_id].result = _result;\n    for (uint i = 0; i <= usedMatch.duelCounter; i++) {\n      if ((usedMatch.duels[i].first.out == usedMatch.result) && (usedMatch.duels[i].second.out == usedMatch.result)) {\n        usedMatch.duels[i].first.player.transfer(msg.value/2);\n        usedMatch.duels[i].second.player.transfer(msg.value/2);\n      }\n      if ((usedMatch.duels[i].first.out != usedMatch.result) && (usedMatch.duels[i].second.out != usedMatch.result)) {\n        usedMatch.duels[i].first.player.transfer(msg.value/2);\n        usedMatch.duels[i].second.player.transfer(msg.value/2);\n      }\n      if ((usedMatch.duels[i].first.out == usedMatch.result) && (usedMatch.duels[i].second.out != usedMatch.result)) {\n        usedMatch.duels[i].first.player.transfer(msg.value);\n      }\n      if ((usedMatch.duels[i].first.out != usedMatch.result) && (usedMatch.duels[i].second.out == usedMatch.result)) {\n        usedMatch.duels[i].second.player.transfer(msg.value);\n      }\n    }\n\n    GameFinished(usedMatch.name);\n  }\n\n  function getMatchCount() public view returns (uint) {\n    return matchCounter;\n  }\n\n  function getPlayable() public view returns (uint[]) {\n    uint[] memory matchIds = new uint[](matchCounter);\n\n    uint c = 0;\n\n    for (uint i = 1; i <= matchCounter; i++) {\n      if (matches[i].result == MatchEnd.NON) {\n        matchIds[c] = matches[i].id;\n        c++;\n      }\n    }\n\n    uint[] memory toReturn = new uint[](c);\n    for (uint j = 0; j < c; j++) {\n      toReturn[j] = matchIds[j];\n    }\n\n    return toReturn;\n  }\n\n  function placeBet(uint _id, MatchEnd _out) payable public {\n    usedMatch = matches[_id];\n    usedDuel = usedMatch.duels[usedMatch.duelCounter];\n\n    if (usedDuel.first.player == 0x0) {\n      usedMatch.duels[usedMatch.duelCounter].first.player = msg.sender;\n      usedMatch.duels[usedMatch.duelCounter].first.out = _out;\n    } else {\n      if (usedDuel.second.player == 0x0 && usedDuel.first.player != msg.sender) {\n        usedMatch.duels[usedMatch.duelCounter].second.player = msg.sender;\n        usedMatch.duels[usedMatch.duelCounter].second.out = _out;\n      } else {\n        usedMatch.duelCounter++;\n        usedMatch.duels[usedMatch.duelCounter] = Duel(usedMatch.duelCounter, Bet(0x0, MatchEnd.NON), Bet(0x0, MatchEnd.NON));\n        usedMatch.duels[usedMatch.duelCounter].first.player = msg.sender;\n        usedMatch.duels[usedMatch.duelCounter].first.out = _out;\n      }\n    }\n\n    owner.transfer(msg.value);\n\n    BetPlaced(msg.sender, usedMatch.name);\n  }\n\n}\n",
  "sourcePath": "/home/balint/ChainSkills/Training/gambledemo/contracts/Game.sol",
  "compiler": {
    "name": "solc",
    "version": "0.4.18+commit.9cf6e910.Emscripten.clang"
  },
  "schemaVersion": "1.0.1",
  "updatedAt": "2018-05-01T09:51:12.245Z"
}